001202106061000202106120000                                                                                                    
002202103170800202103192359                                                                                                    
003202103281000202104062359                                                                                                    
004202103160800202103180759                                                                                                    
005202104020000202104142359                                                                                                    
006202111220000000000000000OBRAS SEM FIM PREVISTO                                                                              
